{
  "_format": "hh-sol-artifact-1",
  "contractName": "GrantManagerV2",
  "sourceName": "contracts/GrantManagerV2.sol",
  "abi": [
    {
      "inputs": [],
      "stateMutability": "nonpayable",
      "type": "constructor"
    },
    {
      "anonymous": false,
      "inputs": [
        {
          "indexed": false,
          "internalType": "enum GrantManagerV2.Phase",
          "name": "newPhase",
          "type": "uint8"
        },
        {
          "indexed": false,
          "internalType": "string",
          "name": "phaseName",
          "type": "string"
        },
        {
          "indexed": false,
          "internalType": "uint256",
          "name": "timestamp",
          "type": "uint256"
        }
      ],
      "name": "PhaseChanged",
      "type": "event"
    },
    {
      "inputs": [],
      "name": "advancePhase",
      "outputs": [],
      "stateMutability": "nonpayable",
      "type": "function"
    },
    {
      "inputs": [],
      "name": "currentPhase",
      "outputs": [
        {
          "internalType": "enum GrantManagerV2.Phase",
          "name": "",
          "type": "uint8"
        }
      ],
      "stateMutability": "view",
      "type": "function"
    },
    {
      "inputs": [],
      "name": "currentPhaseString",
      "outputs": [
        {
          "internalType": "string",
          "name": "",
          "type": "string"
        }
      ],
      "stateMutability": "view",
      "type": "function"
    },
    {
      "inputs": [],
      "name": "getCurrentPhase",
      "outputs": [
        {
          "internalType": "string",
          "name": "",
          "type": "string"
        }
      ],
      "stateMutability": "view",
      "type": "function"
    },
    {
      "inputs": [],
      "name": "lastPhaseChange",
      "outputs": [
        {
          "internalType": "uint256",
          "name": "",
          "type": "uint256"
        }
      ],
      "stateMutability": "view",
      "type": "function"
    },
    {
      "inputs": [],
      "name": "owner",
      "outputs": [
        {
          "internalType": "address",
          "name": "",
          "type": "address"
        }
      ],
      "stateMutability": "view",
      "type": "function"
    },
    {
      "inputs": [],
      "name": "revertToPreviousPhase",
      "outputs": [],
      "stateMutability": "nonpayable",
      "type": "function"
    },
    {
      "inputs": [
        {
          "internalType": "uint256",
          "name": "_phase",
          "type": "uint256"
        }
      ],
      "name": "setPhase",
      "outputs": [],
      "stateMutability": "nonpayable",
      "type": "function"
    },
    {
      "inputs": [
        {
          "internalType": "address",
          "name": "_votingAddress",
          "type": "address"
        }
      ],
      "name": "setVotingContract",
      "outputs": [],
      "stateMutability": "nonpayable",
      "type": "function"
    },
    {
      "inputs": [],
      "name": "validatePhase",
      "outputs": [
        {
          "internalType": "uint256",
          "name": "phaseNumber",
          "type": "uint256"
        },
        {
          "internalType": "string",
          "name": "phaseName",
          "type": "string"
        },
        {
          "internalType": "uint256",
          "name": "changeTimestamp",
          "type": "uint256"
        }
      ],
      "stateMutability": "view",
      "type": "function"
    },
    {
      "inputs": [],
      "name": "votingContract",
      "outputs": [
        {
          "internalType": "contract Voting",
          "name": "",
          "type": "address"
        }
      ],
      "stateMutability": "view",
      "type": "function"
    }
  ],
  "bytecode": "0x60806040523480156200001157600080fd5b5033600260006101000a81548173ffffffffffffffffffffffffffffffffffffffff021916908373ffffffffffffffffffffffffffffffffffffffff1602179055506200006560006200006b60201b60201c565b62000778565b806000806101000a81548160ff02191690836003811115620000925762000091620002a1565b5b0217905550620000a8816200010e60201b60201c565b60019081620000b891906200054a565b50426004819055507f4f26fd4d185a5b6fd2b080343f5a21c8da248227c20e1b2d13eb65a3730f3f7460008054906101000a900460ff16600142604051620001039392919062000734565b60405180910390a150565b606060006003811115620001275762000126620002a1565b5b8260038111156200013d576200013c620002a1565b5b0362000181576040518060400160405280601081526020017f5375626d697373696f6e2050686173650000000000000000000000000000000081525090506200029c565b60016003811115620001985762000197620002a1565b5b826003811115620001ae57620001ad620002a1565b5b03620001f2576040518060400160405280601081526020017f47726f7120436865636b2050686173650000000000000000000000000000000081525090506200029c565b60026003811115620002095762000208620002a1565b5b8260038111156200021f576200021e620002a1565b5b0362000263576040518060400160405280600c81526020017f566f74696e67205068617365000000000000000000000000000000000000000081525090506200029c565b6040518060400160405280600f81526020017f436f6d706c65746564205068617365000000000000000000000000000000000081525090505b919050565b7f4e487b7100000000000000000000000000000000000000000000000000000000600052602160045260246000fd5b600081519050919050565b7f4e487b7100000000000000000000000000000000000000000000000000000000600052604160045260246000fd5b7f4e487b7100000000000000000000000000000000000000000000000000000000600052602260045260246000fd5b600060028204905060018216806200035257607f821691505b6020821081036200036857620003676200030a565b5b50919050565b60008190508160005260206000209050919050565b60006020601f8301049050919050565b600082821b905092915050565b600060088302620003d27fffffffffffffffffffffffffffffffffffffffffffffffffffffffffffffffff8262000393565b620003de868362000393565b95508019841693508086168417925050509392505050565b6000819050919050565b6000819050919050565b60006200042b620004256200041f84620003f6565b62000400565b620003f6565b9050919050565b6000819050919050565b62000447836200040a565b6200045f620004568262000432565b848454620003a0565b825550505050565b600090565b6200047662000467565b620004838184846200043c565b505050565b5b81811015620004ab576200049f6000826200046c565b60018101905062000489565b5050565b601f821115620004fa57620004c4816200036e565b620004cf8462000383565b81016020851015620004df578190505b620004f7620004ee8562000383565b83018262000488565b50505b505050565b600082821c905092915050565b60006200051f60001984600802620004ff565b1980831691505092915050565b60006200053a83836200050c565b9150826002028217905092915050565b6200055582620002d0565b67ffffffffffffffff811115620005715762000570620002db565b5b6200057d825462000339565b6200058a828285620004af565b600060209050601f831160018114620005c25760008415620005ad578287015190505b620005b985826200052c565b86555062000629565b601f198416620005d2866200036e565b60005b82811015620005fc57848901518255600182019150602085019450602081019050620005d5565b868310156200061c578489015162000618601f8916826200050c565b8355505b6001600288020188555050505b505050505050565b60048110620006455762000644620002a1565b5b50565b6000819050620006588262000631565b919050565b60006200066a8262000648565b9050919050565b6200067c816200065d565b82525050565b600082825260208201905092915050565b60008154620006a28162000339565b620006ae818662000682565b94506001821660008114620006cc5760018114620006e3576200071a565b60ff1983168652811515602002860193506200071a565b620006ee856200036e565b60005b838110156200071257815481890152600182019150602081019050620006f1565b808801955050505b50505092915050565b6200072e81620003f6565b82525050565b60006060820190506200074b600083018662000671565b81810360208301526200075f818562000693565b905062000770604083018462000723565b949350505050565b61140580620007886000396000f3fe608060405234801561001057600080fd5b50600436106100a95760003560e01c8063a069c1ac11610071578063a069c1ac14610144578063a3a40ea514610160578063a86dafc71461017e578063b888adfa14610188578063be25a718146101a6578063c1fc006a146101b0576100a9565b8063055ad42e146100ae5780632cc82655146100cc5780633ac669af146100e85780638da5cb5b14610106578063974f9c6c14610124575b600080fd5b6100b66101ce565b6040516100c39190610af7565b60405180910390f35b6100e660048036038101906100e19190610b4d565b6101df565b005b6100f06102e2565b6040516100fd9190610c0a565b60405180910390f35b61010e610370565b60405161011b9190610c6d565b60405180910390f35b61012c610396565b60405161013b93929190610c97565b60405180910390f35b61015e60048036038101906101599190610d01565b610459565b005b61016861052d565b6040516101759190610c0a565b60405180910390f35b6101866105bf565b005b6101906106fa565b60405161019d9190610d2e565b60405180910390f35b6101ae610700565b005b6101b861084b565b6040516101c59190610da8565b60405180910390f35b60008054906101000a900460ff1681565b600260009054906101000a900473ffffffffffffffffffffffffffffffffffffffff1673ffffffffffffffffffffffffffffffffffffffff163373ffffffffffffffffffffffffffffffffffffffff161461026f576040517f08c379a000000000000000000000000000000000000000000000000000000000815260040161026690610e0f565b60405180910390fd5b60038081111561028257610281610a80565b5b8111156102c4576040517f08c379a00000000000000000000000000000000000000000000000000000000081526004016102bb90610e7b565b60405180910390fd5b6102df8160038111156102da576102d9610a80565b5b610871565b50565b600180546102ef90610eca565b80601f016020809104026020016040519081016040528092919081815260200182805461031b90610eca565b80156103685780601f1061033d57610100808354040283529160200191610368565b820191906000526020600020905b81548152906001019060200180831161034b57829003601f168201915b505050505081565b600260009054906101000a900473ffffffffffffffffffffffffffffffffffffffff1681565b6000606060008060009054906101000a900460ff1660038111156103bd576103bc610a80565b5b60016004548180546103ce90610eca565b80601f01602080910402602001604051908101604052809291908181526020018280546103fa90610eca565b80156104475780601f1061041c57610100808354040283529160200191610447565b820191906000526020600020905b81548152906001019060200180831161042a57829003601f168201915b50505050509150925092509250909192565b600260009054906101000a900473ffffffffffffffffffffffffffffffffffffffff1673ffffffffffffffffffffffffffffffffffffffff163373ffffffffffffffffffffffffffffffffffffffff16146104e9576040517f08c379a00000000000000000000000000000000000000000000000000000000081526004016104e090610e0f565b60405180910390fd5b80600360006101000a81548173ffffffffffffffffffffffffffffffffffffffff021916908373ffffffffffffffffffffffffffffffffffffffff16021790555050565b60606001805461053c90610eca565b80601f016020809104026020016040519081016040528092919081815260200182805461056890610eca565b80156105b55780601f1061058a576101008083540402835291602001916105b5565b820191906000526020600020905b81548152906001019060200180831161059857829003601f168201915b5050505050905090565b600260009054906101000a900473ffffffffffffffffffffffffffffffffffffffff1673ffffffffffffffffffffffffffffffffffffffff163373ffffffffffffffffffffffffffffffffffffffff161461064f576040517f08c379a000000000000000000000000000000000000000000000000000000000815260040161064690610e0f565b60405180910390fd5b60008060009054906101000a900460ff16600381111561067257610671610a80565b5b116106b2576040517f08c379a00000000000000000000000000000000000000000000000000000000081526004016106a990610f47565b60405180910390fd5b6106f8600160008054906101000a900460ff1660038111156106d7576106d6610a80565b5b6106e19190610f96565b60038111156106f3576106f2610a80565b5b610871565b565b60045481565b600260009054906101000a900473ffffffffffffffffffffffffffffffffffffffff1673ffffffffffffffffffffffffffffffffffffffff163373ffffffffffffffffffffffffffffffffffffffff1614610790576040517f08c379a000000000000000000000000000000000000000000000000000000000815260040161078790610e0f565b60405180910390fd5b6003808111156107a3576107a2610a80565b5b60008054906101000a900460ff1660038111156107c3576107c2610a80565b5b10610803576040517f08c379a00000000000000000000000000000000000000000000000000000000081526004016107fa90611016565b60405180910390fd5b610849600160008054906101000a900460ff16600381111561082857610827610a80565b5b6108329190611036565b600381111561084457610843610a80565b5b610871565b565b600360009054906101000a900473ffffffffffffffffffffffffffffffffffffffff1681565b806000806101000a81548160ff0219169083600381111561089557610894610a80565b5b02179055506108a381610905565b600190816108b1919061123b565b50426004819055507f4f26fd4d185a5b6fd2b080343f5a21c8da248227c20e1b2d13eb65a3730f3f7460008054906101000a900460ff166001426040516108fa93929190611391565b60405180910390a150565b60606000600381111561091b5761091a610a80565b5b82600381111561092e5761092d610a80565b5b03610970576040518060400160405280601081526020017f5375626d697373696f6e205068617365000000000000000000000000000000008152509050610a7b565b6001600381111561098457610983610a80565b5b82600381111561099757610996610a80565b5b036109d9576040518060400160405280601081526020017f47726f7120436865636b205068617365000000000000000000000000000000008152509050610a7b565b600260038111156109ed576109ec610a80565b5b826003811115610a00576109ff610a80565b5b03610a42576040518060400160405280600c81526020017f566f74696e6720506861736500000000000000000000000000000000000000008152509050610a7b565b6040518060400160405280600f81526020017f436f6d706c65746564205068617365000000000000000000000000000000000081525090505b919050565b7f4e487b7100000000000000000000000000000000000000000000000000000000600052602160045260246000fd5b60048110610ac057610abf610a80565b5b50565b6000819050610ad182610aaf565b919050565b6000610ae182610ac3565b9050919050565b610af181610ad6565b82525050565b6000602082019050610b0c6000830184610ae8565b92915050565b600080fd5b6000819050919050565b610b2a81610b17565b8114610b3557600080fd5b50565b600081359050610b4781610b21565b92915050565b600060208284031215610b6357610b62610b12565b5b6000610b7184828501610b38565b91505092915050565b600081519050919050565b600082825260208201905092915050565b60005b83811015610bb4578082015181840152602081019050610b99565b60008484015250505050565b6000601f19601f8301169050919050565b6000610bdc82610b7a565b610be68185610b85565b9350610bf6818560208601610b96565b610bff81610bc0565b840191505092915050565b60006020820190508181036000830152610c248184610bd1565b905092915050565b600073ffffffffffffffffffffffffffffffffffffffff82169050919050565b6000610c5782610c2c565b9050919050565b610c6781610c4c565b82525050565b6000602082019050610c826000830184610c5e565b92915050565b610c9181610b17565b82525050565b6000606082019050610cac6000830186610c88565b8181036020830152610cbe8185610bd1565b9050610ccd6040830184610c88565b949350505050565b610cde81610c4c565b8114610ce957600080fd5b50565b600081359050610cfb81610cd5565b92915050565b600060208284031215610d1757610d16610b12565b5b6000610d2584828501610cec565b91505092915050565b6000602082019050610d436000830184610c88565b92915050565b6000819050919050565b6000610d6e610d69610d6484610c2c565b610d49565b610c2c565b9050919050565b6000610d8082610d53565b9050919050565b6000610d9282610d75565b9050919050565b610da281610d87565b82525050565b6000602082019050610dbd6000830184610d99565b92915050565b7f4e6f7420617574686f72697a6564000000000000000000000000000000000000600082015250565b6000610df9600e83610b85565b9150610e0482610dc3565b602082019050919050565b60006020820190508181036000830152610e2881610dec565b9050919050565b7f496e76616c696420706861736500000000000000000000000000000000000000600082015250565b6000610e65600d83610b85565b9150610e7082610e2f565b602082019050919050565b60006020820190508181036000830152610e9481610e58565b9050919050565b7f4e487b7100000000000000000000000000000000000000000000000000000000600052602260045260246000fd5b60006002820490506001821680610ee257607f821691505b602082108103610ef557610ef4610e9b565b5b50919050565b7f416c726561647920617420666972737420706861736500000000000000000000600082015250565b6000610f31601683610b85565b9150610f3c82610efb565b602082019050919050565b60006020820190508181036000830152610f6081610f24565b9050919050565b7f4e487b7100000000000000000000000000000000000000000000000000000000600052601160045260246000fd5b6000610fa182610b17565b9150610fac83610b17565b9250828203905081811115610fc457610fc3610f67565b5b92915050565b7f416c726561647920636f6d706c65746564000000000000000000000000000000600082015250565b6000611000601183610b85565b915061100b82610fca565b602082019050919050565b6000602082019050818103600083015261102f81610ff3565b9050919050565b600061104182610b17565b915061104c83610b17565b925082820190508082111561106457611063610f67565b5b92915050565b7f4e487b7100000000000000000000000000000000000000000000000000000000600052604160045260246000fd5b60008190508160005260206000209050919050565b60006020601f8301049050919050565b600082821b905092915050565b6000600883026110fb7fffffffffffffffffffffffffffffffffffffffffffffffffffffffffffffffff826110be565b61110586836110be565b95508019841693508086168417925050509392505050565b600061113861113361112e84610b17565b610d49565b610b17565b9050919050565b6000819050919050565b6111528361111d565b61116661115e8261113f565b8484546110cb565b825550505050565b600090565b61117b61116e565b611186818484611149565b505050565b5b818110156111aa5761119f600082611173565b60018101905061118c565b5050565b601f8211156111ef576111c081611099565b6111c9846110ae565b810160208510156111d8578190505b6111ec6111e4856110ae565b83018261118b565b50505b505050565b600082821c905092915050565b6000611212600019846008026111f4565b1980831691505092915050565b600061122b8383611201565b9150826002028217905092915050565b61124482610b7a565b67ffffffffffffffff81111561125d5761125c61106a565b5b6112678254610eca565b6112728282856111ae565b600060209050601f8311600181146112a55760008415611293578287015190505b61129d858261121f565b865550611305565b601f1984166112b386611099565b60005b828110156112db578489015182556001820191506020850194506020810190506112b6565b868310156112f857848901516112f4601f891682611201565b8355505b6001600288020188555050505b505050505050565b6000815461131a81610eca565b6113248186610b85565b9450600182166000811461133f576001811461135557611388565b60ff198316865281151560200286019350611388565b61135e85611099565b60005b8381101561138057815481890152600182019150602081019050611361565b808801955050505b50505092915050565b60006060820190506113a66000830186610ae8565b81810360208301526113b8818561130d565b90506113c76040830184610c88565b94935050505056fea2646970667358221220684d58e3143edabc1f71abbbd991265f5e8881abc3feeaed4832ec5481d0a63664736f6c63430008130033",
  "linkReferences": {},
  "deployedLinkReferences": {}
}